{
  "_format": "hh-sol-artifact-1",
  "contractName": "WotsApp",
  "sourceName": "contracts/WotsApp.sol",
  "abi": [
    {
      "anonymous": false,
      "inputs": [
        {
          "indexed": true,
          "internalType": "address[]",
          "name": "contacts",
          "type": "address[]"
        }
      ],
      "name": "contactsReceived",
      "type": "event"
    },
    {
      "anonymous": false,
      "inputs": [
        {
          "components": [
            {
              "internalType": "string",
              "name": "data",
              "type": "string"
            },
            {
              "internalType": "uint256",
              "name": "date",
              "type": "uint256"
            },
            {
              "internalType": "enum WotsApp.messageType",
              "name": "_type",
              "type": "uint8"
            }
          ],
          "indexed": true,
          "internalType": "struct WotsApp.message[]",
          "name": "messages",
          "type": "tuple[]"
        }
      ],
      "name": "messagesReceived",
      "type": "event"
    },
    {
      "inputs": [
        {
          "internalType": "address",
          "name": "_to",
          "type": "address"
        }
      ],
      "name": "addNewContact",
      "outputs": [],
      "stateMutability": "nonpayable",
      "type": "function"
    },
    {
      "inputs": [
        {
          "internalType": "address",
          "name": "_to",
          "type": "address"
        }
      ],
      "name": "deleteContact",
      "outputs": [],
      "stateMutability": "nonpayable",
      "type": "function"
    },
    {
      "inputs": [
        {
          "internalType": "address",
          "name": "_to",
          "type": "address"
        },
        {
          "internalType": "uint256",
          "name": "index",
          "type": "uint256"
        }
      ],
      "name": "deleteMessage",
      "outputs": [],
      "stateMutability": "nonpayable",
      "type": "function"
    },
    {
      "inputs": [
        {
          "internalType": "address",
          "name": "_to",
          "type": "address"
        },
        {
          "internalType": "uint256",
          "name": "index",
          "type": "uint256"
        },
        {
          "internalType": "string",
          "name": "data",
          "type": "string"
        }
      ],
      "name": "editMessage",
      "outputs": [],
      "stateMutability": "nonpayable",
      "type": "function"
    },
    {
      "inputs": [],
      "name": "getContactsAdresses",
      "outputs": [
        {
          "internalType": "address[]",
          "name": "",
          "type": "address[]"
        }
      ],
      "stateMutability": "nonpayable",
      "type": "function"
    },
    {
      "inputs": [
        {
          "internalType": "address",
          "name": "_to",
          "type": "address"
        }
      ],
      "name": "getMessagesFromContact",
      "outputs": [
        {
          "components": [
            {
              "internalType": "string",
              "name": "data",
              "type": "string"
            },
            {
              "internalType": "uint256",
              "name": "date",
              "type": "uint256"
            },
            {
              "internalType": "enum WotsApp.messageType",
              "name": "_type",
              "type": "uint8"
            }
          ],
          "internalType": "struct WotsApp.message[]",
          "name": "",
          "type": "tuple[]"
        }
      ],
      "stateMutability": "nonpayable",
      "type": "function"
    },
    {
      "inputs": [
        {
          "internalType": "address",
          "name": "_to",
          "type": "address"
        },
        {
          "internalType": "string",
          "name": "data",
          "type": "string"
        }
      ],
      "name": "sendMessage",
      "outputs": [],
      "stateMutability": "nonpayable",
      "type": "function"
    }
  ],
  "bytecode": "0x608060405234801561001057600080fd5b50611fe8806100206000396000f3fe608060405234801561001057600080fd5b506004361061007d5760003560e01c8063de6f24bb1161005b578063de6f24bb146100d6578063e2358484146100f2578063e5804f901461010e578063f38d110a1461013e5761007d565b80631046bc68146100825780636704e9811461009e578063c7cdc51d146100ba575b600080fd5b61009c60048036038101906100979190611324565b61015c565b005b6100b860048036038101906100b39190611387565b6101d0565b005b6100d460048036038101906100cf9190611324565b610361565b005b6100f060048036038101906100eb919061142c565b610663565b005b61010c6004803603810190610107919061148c565b6108c7565b005b61012860048036038101906101239190611324565b61093e565b6040516101359190611728565b60405180910390f35b610146610c5a565b6040516101539190611808565b60405180910390f35b80600073ffffffffffffffffffffffffffffffffffffffff168173ffffffffffffffffffffffffffffffffffffffff16036101cc576040517f08c379a00000000000000000000000000000000000000000000000000000000081526004016101c3906118ad565b60405180910390fd5b5050565b81600073ffffffffffffffffffffffffffffffffffffffff168173ffffffffffffffffffffffffffffffffffffffff1603610240576040517f08c379a0000000000000000000000000000000000000000000000000000000008152600401610237906118ad565b60405180910390fd5b6000803373ffffffffffffffffffffffffffffffffffffffff1673ffffffffffffffffffffffffffffffffffffffff168152602001908152602001600020805490508211156102c4576040517f08c379a00000000000000000000000000000000000000000000000000000000081526004016102bb90611919565b60405180910390fd5b6000803373ffffffffffffffffffffffffffffffffffffffff1673ffffffffffffffffffffffffffffffffffffffff168152602001908152602001600020828154811061031457610313611939565b5b9060005260206000209060020201600080820160006101000a81549073ffffffffffffffffffffffffffffffffffffffff021916905560018201600061035a91906111c5565b5050505050565b80600073ffffffffffffffffffffffffffffffffffffffff168173ffffffffffffffffffffffffffffffffffffffff16036103d1576040517f08c379a00000000000000000000000000000000000000000000000000000000081526004016103c8906118ad565b60405180910390fd5b6000803373ffffffffffffffffffffffffffffffffffffffff1673ffffffffffffffffffffffffffffffffffffffff16815260200190815260200160002060018160018154018082558091505003906000526020600020905050816000803373ffffffffffffffffffffffffffffffffffffffff1673ffffffffffffffffffffffffffffffffffffffff16815260200190815260200160002060016000803373ffffffffffffffffffffffffffffffffffffffff1673ffffffffffffffffffffffffffffffffffffffff168152602001908152602001600020805490506104b89190611997565b815481106104c9576104c8611939565b5b906000526020600020906002020160000160006101000a81548173ffffffffffffffffffffffffffffffffffffffff021916908373ffffffffffffffffffffffffffffffffffffffff1602179055506000808373ffffffffffffffffffffffffffffffffffffffff1673ffffffffffffffffffffffffffffffffffffffff16815260200190815260200160002060018160018154018082558091505003906000526020600020905050336000808473ffffffffffffffffffffffffffffffffffffffff1673ffffffffffffffffffffffffffffffffffffffff16815260200190815260200160002060016000808673ffffffffffffffffffffffffffffffffffffffff1673ffffffffffffffffffffffffffffffffffffffff168152602001908152602001600020805490506105ff9190611997565b815481106106105761060f611939565b5b906000526020600020906002020160000160006101000a81548173ffffffffffffffffffffffffffffffffffffffff021916908373ffffffffffffffffffffffffffffffffffffffff1602179055505050565b82600073ffffffffffffffffffffffffffffffffffffffff168173ffffffffffffffffffffffffffffffffffffffff16036106d3576040517f08c379a00000000000000000000000000000000000000000000000000000000081526004016106ca906118ad565b60405180910390fd5b60006106df3386610e62565b905060006106ed8633610e62565b90506000808773ffffffffffffffffffffffffffffffffffffffff1673ffffffffffffffffffffffffffffffffffffffff168152602001908152602001600020818154811061073f5761073e611939565b5b906000526020600020906002020160010161075c86866001611143565b9080600181540180825580915050600190039060005260206000209060030201600090919091909150600082015181600001908161079a9190611c06565b506020820151816001015560408201518160020160006101000a81548160ff021916908360018111156107d0576107cf6115cb565b5b021790555050506000803373ffffffffffffffffffffffffffffffffffffffff1673ffffffffffffffffffffffffffffffffffffffff168152602001908152602001600020828154811061082757610826611939565b5b906000526020600020906002020160010161084486866000611143565b908060018154018082558091505060019003906000526020600020906003020160009091909190915060008201518160000190816108829190611c06565b506020820151816001015560408201518160020160006101000a81548160ff021916908360018111156108b8576108b76115cb565b5b02179055505050505050505050565b83600073ffffffffffffffffffffffffffffffffffffffff168173ffffffffffffffffffffffffffffffffffffffff1603610937576040517f08c379a000000000000000000000000000000000000000000000000000000000815260040161092e906118ad565b60405180910390fd5b5050505050565b6060600061094c3384610e62565b905060008060003373ffffffffffffffffffffffffffffffffffffffff1673ffffffffffffffffffffffffffffffffffffffff16815260200190815260200160002082815481106109a05761099f611939565b5b90600052602060002090600202016001018054905067ffffffffffffffff8111156109ce576109cd6119cb565b5b604051908082528060200260200182016040528015610a0757816020015b6109f46111e9565b8152602001906001900390816109ec5790505b50905060005b6000803373ffffffffffffffffffffffffffffffffffffffff1673ffffffffffffffffffffffffffffffffffffffff1681526020019081526020016000208381548110610a5d57610a5c611939565b5b906000526020600020906002020160010180549050811015610c0d576000803373ffffffffffffffffffffffffffffffffffffffff1673ffffffffffffffffffffffffffffffffffffffff1681526020019081526020016000208381548110610ac957610ac8611939565b5b90600052602060002090600202016001018181548110610aec57610aeb611939565b5b9060005260206000209060030201604051806060016040529081600082018054610b1590611a29565b80601f0160208091040260200160405190810160405280929190818152602001828054610b4190611a29565b8015610b8e5780601f10610b6357610100808354040283529160200191610b8e565b820191906000526020600020905b815481529060010190602001808311610b7157829003601f168201915b50505050508152602001600182015481526020016002820160009054906101000a900460ff166001811115610bc657610bc56115cb565b5b6001811115610bd857610bd76115cb565b5b81525050828281518110610bef57610bee611939565b5b60200260200101819052508080610c0590611cd8565b915050610a0d565b5080604051610c1c9190611e88565b60405180910390207ff68dc5029792218800e0f74c10d124cd5633980b4ed0ce2b068c5b0c9e32080960405160405180910390a28092505050919050565b606060008060003373ffffffffffffffffffffffffffffffffffffffff1673ffffffffffffffffffffffffffffffffffffffff1681526020019081526020016000208054905067ffffffffffffffff811115610cb957610cb86119cb565b5b604051908082528060200260200182016040528015610ce75781602001602082028036833780820191505090505b50905060005b6000803373ffffffffffffffffffffffffffffffffffffffff1673ffffffffffffffffffffffffffffffffffffffff16815260200190815260200160002080549050811015610e18576000803373ffffffffffffffffffffffffffffffffffffffff1673ffffffffffffffffffffffffffffffffffffffff1681526020019081526020016000208181548110610d8657610d85611939565b5b906000526020600020906002020160000160009054906101000a900473ffffffffffffffffffffffffffffffffffffffff16828281518110610dcb57610dca611939565b5b602002602001019073ffffffffffffffffffffffffffffffffffffffff16908173ffffffffffffffffffffffffffffffffffffffff16815250508080610e1090611cd8565b915050610ced565b5080604051610e279190611f2f565b60405180910390207f9fcb45de21bf4b9796da899d935211ec55ca2d3c1e8252abc609b659c475e46a60405160405180910390a28091505090565b6000806000808573ffffffffffffffffffffffffffffffffffffffff1673ffffffffffffffffffffffffffffffffffffffff168152602001908152602001600020805480602002602001604051908101604052809291908181526020016000905b8282101561108157838290600052602060002090600202016040518060400160405290816000820160009054906101000a900473ffffffffffffffffffffffffffffffffffffffff1673ffffffffffffffffffffffffffffffffffffffff1673ffffffffffffffffffffffffffffffffffffffff16815260200160018201805480602002602001604051908101604052809291908181526020016000905b8282101561106a5783829060005260206000209060030201604051806060016040529081600082018054610f9490611a29565b80601f0160208091040260200160405190810160405280929190818152602001828054610fc090611a29565b801561100d5780601f10610fe25761010080835404028352916020019161100d565b820191906000526020600020905b815481529060010190602001808311610ff057829003601f168201915b50505050508152602001600182015481526020016002820160009054906101000a900460ff166001811115611045576110446115cb565b5b6001811115611057576110566115cb565b5b8152505081526020019060010190610f61565b505050508152505081526020019060010190610ec3565b50505050905060005b8151811015611101578373ffffffffffffffffffffffffffffffffffffffff168282815181106110bd576110bc611939565b5b60200260200101516000015173ffffffffffffffffffffffffffffffffffffffff16036110ee57809250505061113d565b80806110f990611cd8565b91505061108a565b506040517f08c379a000000000000000000000000000000000000000000000000000000000815260040161113490611f92565b60405180910390fd5b92915050565b61114b6111e9565b604051806060016040528085858080601f016020809104026020016040519081016040528093929190818152602001838380828437600081840152601f19601f8201169050808301925050505050505081526020014281526020018360018111156111b9576111b86115cb565b5b81525090509392505050565b50805460008255600302906000526020600020908101906111e6919061121c565b50565b6040518060600160405280606081526020016000815260200160006001811115611216576112156115cb565b5b81525090565b5b8082111561125b5760008082016000611236919061125f565b60018201600090556002820160006101000a81549060ff02191690555060030161121d565b5090565b50805461126b90611a29565b6000825580601f1061127d575061129c565b601f01602090049060005260206000209081019061129b919061129f565b5b50565b5b808211156112b85760008160009055506001016112a0565b5090565b600080fd5b600080fd5b600073ffffffffffffffffffffffffffffffffffffffff82169050919050565b60006112f1826112c6565b9050919050565b611301816112e6565b811461130c57600080fd5b50565b60008135905061131e816112f8565b92915050565b60006020828403121561133a576113396112bc565b5b60006113488482850161130f565b91505092915050565b6000819050919050565b61136481611351565b811461136f57600080fd5b50565b6000813590506113818161135b565b92915050565b6000806040838503121561139e5761139d6112bc565b5b60006113ac8582860161130f565b92505060206113bd85828601611372565b9150509250929050565b600080fd5b600080fd5b600080fd5b60008083601f8401126113ec576113eb6113c7565b5b8235905067ffffffffffffffff811115611409576114086113cc565b5b602083019150836001820283011115611425576114246113d1565b5b9250929050565b600080600060408486031215611445576114446112bc565b5b60006114538682870161130f565b935050602084013567ffffffffffffffff811115611474576114736112c1565b5b611480868287016113d6565b92509250509250925092565b600080600080606085870312156114a6576114a56112bc565b5b60006114b48782880161130f565b94505060206114c587828801611372565b935050604085013567ffffffffffffffff8111156114e6576114e56112c1565b5b6114f2878288016113d6565b925092505092959194509250565b600081519050919050565b600082825260208201905092915050565b6000819050602082019050919050565b600081519050919050565b600082825260208201905092915050565b60005b8381101561156657808201518184015260208101905061154b565b60008484015250505050565b6000601f19601f8301169050919050565b600061158e8261152c565b6115988185611537565b93506115a8818560208601611548565b6115b181611572565b840191505092915050565b6115c581611351565b82525050565b7f4e487b7100000000000000000000000000000000000000000000000000000000600052602160045260246000fd5b6002811061160b5761160a6115cb565b5b50565b600081905061161c826115fa565b919050565b600061162c8261160e565b9050919050565b61163c81611621565b82525050565b6000606083016000830151848203600086015261165f8282611583565b915050602083015161167460208601826115bc565b5060408301516116876040860182611633565b508091505092915050565b600061169e8383611642565b905092915050565b6000602082019050919050565b60006116be82611500565b6116c8818561150b565b9350836020820285016116da8561151c565b8060005b8581101561171657848403895281516116f78582611692565b9450611702836116a6565b925060208a019950506001810190506116de565b50829750879550505050505092915050565b6000602082019050818103600083015261174281846116b3565b905092915050565b600081519050919050565b600082825260208201905092915050565b6000819050602082019050919050565b61177f816112e6565b82525050565b60006117918383611776565b60208301905092915050565b6000602082019050919050565b60006117b58261174a565b6117bf8185611755565b93506117ca83611766565b8060005b838110156117fb5781516117e28882611785565b97506117ed8361179d565b9250506001810190506117ce565b5085935050505092915050565b6000602082019050818103600083015261182281846117aa565b905092915050565b600082825260208201905092915050565b7f416464726573732063616e6e6f7420626520746865207a65726f20616464726560008201527f73732e0000000000000000000000000000000000000000000000000000000000602082015250565b600061189760238361182a565b91506118a28261183b565b604082019050919050565b600060208201905081810360008301526118c68161188a565b9050919050565b7f496e646578206e6f742076616c69640000000000000000000000000000000000600082015250565b6000611903600f8361182a565b915061190e826118cd565b602082019050919050565b60006020820190508181036000830152611932816118f6565b9050919050565b7f4e487b7100000000000000000000000000000000000000000000000000000000600052603260045260246000fd5b7f4e487b7100000000000000000000000000000000000000000000000000000000600052601160045260246000fd5b60006119a282611351565b91506119ad83611351565b92508282039050818111156119c5576119c4611968565b5b92915050565b7f4e487b7100000000000000000000000000000000000000000000000000000000600052604160045260246000fd5b7f4e487b7100000000000000000000000000000000000000000000000000000000600052602260045260246000fd5b60006002820490506001821680611a4157607f821691505b602082108103611a5457611a536119fa565b5b50919050565b60008190508160005260206000209050919050565b60006020601f8301049050919050565b600082821b905092915050565b600060088302611abc7fffffffffffffffffffffffffffffffffffffffffffffffffffffffffffffffff82611a7f565b611ac68683611a7f565b95508019841693508086168417925050509392505050565b6000819050919050565b6000611b03611afe611af984611351565b611ade565b611351565b9050919050565b6000819050919050565b611b1d83611ae8565b611b31611b2982611b0a565b848454611a8c565b825550505050565b600090565b611b46611b39565b611b51818484611b14565b505050565b5b81811015611b7557611b6a600082611b3e565b600181019050611b57565b5050565b601f821115611bba57611b8b81611a5a565b611b9484611a6f565b81016020851015611ba3578190505b611bb7611baf85611a6f565b830182611b56565b50505b505050565b600082821c905092915050565b6000611bdd60001984600802611bbf565b1980831691505092915050565b6000611bf68383611bcc565b9150826002028217905092915050565b611c0f8261152c565b67ffffffffffffffff811115611c2857611c276119cb565b5b611c328254611a29565b611c3d828285611b79565b600060209050601f831160018114611c705760008415611c5e578287015190505b611c688582611bea565b865550611cd0565b601f198416611c7e86611a5a565b60005b82811015611ca657848901518255600182019150602085019450602081019050611c81565b86831015611cc35784890151611cbf601f891682611bcc565b8355505b6001600288020188555050505b505050505050565b6000611ce382611351565b91507fffffffffffffffffffffffffffffffffffffffffffffffffffffffffffffffff8203611d1557611d14611968565b5b600182019050919050565b600081905092915050565b600081905092915050565b6000611d418261152c565b611d4b8185611d2b565b9350611d5b818560208601611548565b611d6481611572565b840191505092915050565b6000611d7b8383611d36565b905092915050565b611d8c81611351565b82525050565b6000611d9e8383611d83565b60208301905092915050565b611db381611621565b82525050565b6000611dc58383611daa565b60208301905092915050565b60008083016000830151611de58582611d6f565b9450506020830151611df78582611d92565b9450506040830151611e098582611db9565b9450508391505092915050565b6000611e228383611dd1565b905092915050565b6000611e3582611500565b611e3f8185611d20565b9350611e4a8361151c565b8060005b83811015611e7b578151611e628882611e16565b9750611e6d836116a6565b925050600181019050611e4e565b5085935050505092915050565b6000611e948284611e2a565b915081905092915050565b600081905092915050565b611eb3816112e6565b82525050565b6000611ec58383611eaa565b60208301905092915050565b6000611edc8261174a565b611ee68185611e9f565b9350611ef183611766565b8060005b83811015611f22578151611f098882611eb9565b9750611f148361179d565b925050600181019050611ef5565b5085935050505092915050565b6000611f3b8284611ed1565b915081905092915050565b7f436f6e7461637420646f6573206e6f7420657869737473000000000000000000600082015250565b6000611f7c60178361182a565b9150611f8782611f46565b602082019050919050565b60006020820190508181036000830152611fab81611f6f565b905091905056fea2646970667358221220ef72521ae3500cbca816da3e16ad109113c0a963fb65e210a09d421bf29143f964736f6c63430008120033",
  "linkReferences": {},
  "deployedLinkReferences": {}
}